:0200000480007A
:100000006F00C02F6F00001F6F00402E6F00002E8A
:100010006F00C02D6F00802D6F00402D6F00002DF0
:100020006F00C02C6F00802C6F00402C6F00002CE4
:100030006F00C02B6F00802B6F00402B6F00002BD8
:100040006F00C02A6F00802A6F00402A6F00002ACC
:100050006F00C0296F0080296F0040296F000029C0
:100060006F00C0286F0080286F0040286F000028B4
:100070006F00C0276F0080276F0040276F00403857
:10008000979102009381010617010300130181F784
:1000900017050000130505F713651500731055309B
:1000A0001385C1F417A602001306C6833306A640C3
:1000B00093050000EF204034172500001305451379
:1000C000EF20800EEF20401813050000930500007C
:1000D00013060000EF00C0006F20400E6780000094
:1000E000130101D993078100130710009306010142
:1000F0001306800193058001130500242326112691
:10010000232481262322912623202127232E3125D3
:10011000232C4125EF10C001F32920B0F32400B0B7
:10012000930671001306C1009305810013050101B8
:10013000EF10C02A13040500732A20B0732900B001
:10014000832581001765010013054539EF20803CA8
:100150008325C1001765010013054539EF20803B59
:10016000930504001765010013054539EF20803A17
:10017000834571001765010013054539EF2080396B
:1001800033063A41976501009385453917650100AB
:1001900013054539EF200038330699409765010073
:1001A0009385C5371765010013058539EF20803623
:1001B0008320C12603248126832441260329012686
:1001C0008329C125032A8125130500001301012776
:1001D0006780000093070000638807001725000070
:1001E000130505016F10507C6780000013050000A7
:1001F0006780000013050000678000001305000001
:1002000067800000130500006780000013050000F0
:1002100067800000130500006780000013050000E0
:1002200067800000130500006780000013050000D0
:1002300067800000130500006780000013050000C0
:1002400067800000130500006780000013050000B0
:1002500067800000130500006780000013050000A0
:100260006780000013050000678000001305000090
:100270006780000013050000678000001305000080
:100280006780000013050000678000001305000070
:100290006780000013050000678000001305000060
:1002A0006780000013050000678000001305000050
:1002B0006780000013050000678000001305000040
:1002C0006780000013050000678000001305000030
:1002D0006780000013050000678000001305000020
:1002E00067800000130500006780000017650100AB
:1002F000130595EEEF2080336FF05FFF130101FCD3
:10030000232011002322A1002324B1002326C100B1
:100310002328D100232AE100232CF100232E010100
:100320002320110323225102232461022326710278
:100330002328C103232AD103232CE103232EF10315
:10034000F322203413032000638862021303B000F9
:100350006388620013033000638862006F00C0028C
:10036000EF0000346F00400317650100130585E2BC
:10037000EF20C02B6F00400217650100130585DCDC
:10038000EF20C02A6F004001176501001305A5E2A8
:10039000EF20C0296F004002F322103403830200D3
:1003A000130530003373A3006314A300938222006B
:1003B00093822200739012348320010003254100B0
:1003C000832581000326C100832601010327410103
:1003D000832781010328C10183280102832241026E
:1003E000032381028323C102032E0103832E4103D1
:1003F000032F8103832FC1031301010473002030F5
:10040000730020303305A04023AAA1F41305F0FFA8
:100410006780000017670100130747DE9307500548
:10042000B70600101307170023A0F6008347070044
:10043000E39A07FE678000009307800523AAF1F482
:100440001305F0FF678000009307800523AAF1F4ED
:100450001305F0FF678000009307800523AAF1F4DD
:100460001305F0FF678000009307800523AAF1F4CD
:100470001305F0FF678000009307800523AAF1F4BD
:100480001305F0FF678000001305F0FF6780000090
:100490009307C00023AAF1F41305F0FF6780000062
:1004A000B707048023A0A700730050106F0000005E
:1004B0009307800523AAF1F41305F0FF678000007D
:1004C0009307B00023AAF1F41305F0FF6780000042
:1004D000B727000023A2F500130500006780000085
:1004E0009307800523AAF1F41305F0FF678000004D
:1004F0009307800523AAF1F41305F0FF678000003D
:10050000930780FA23AAF1F4130500006780000026
:100510001305100067800000930780FA23AAF1F406
:100520001305F0FF678000001305F5FF1335150074
:10053000678000009307600123AAF1F41305F0FF20
:10054000678000009307F00123AAF1F41305F0FF80
:100550006780000013050000678000009307800596
:1005600023AAF1F41305F0FF678000001305F0FFE4
:10057000678000009307800523AAF1F41305F0FFBC
:10058000678000001305000067800000B7270000A7
:1005900023A2F50013050000678000001305F0FF9B
:1005A000678000001305F0FF6780000093072000BC
:1005B00023AAF1F41305F0FF67800000930780057C
:1005C00023AAF1F41305F0FF678000009307A00051
:1005D00023AAF1F41305F0FF67800000130101FF67
:1005E000232021011389C1F48327090023248100DA
:1005F0002322910023261100938405001304060092
:10060000638A07021306040093850400178502001D
:10061000130545DDEF00C05B8320C1001305040016
:1006200003248100832441000329010013010101F7
:1006300067800000B7C501001306300093850520D0
:1006400017850200130505DAEF00404B93071000F1
:100650002320F9006FF01FFB23AEA1F21305000069
:10066000678000001387C1F3832707003385A70045
:100670002320A700637C2500170703001307879832
:100680006376E50013850700678000009307C000CC
:1006900023AAF1F49307F0FF138507006780000099
:1006A000130101FF2322910023261100232481003E
:1006B00023202101930710089384050063C81709BC
:1006C0009307F00263C0170793071001639AF802BB
:1006D000930780FA23AAF1F48320C1000324810048
:1006E00083244100032901001301010167800000F8
:1006F00093079009E382F8FE9307900AE38AF8FCD7
:100700001307500597670100938747AFB70600109E
:100710009387170023A0E60003C70700E31A07FE2C
:100720006FF09FFB938808FD93071005E3EA17FD20
:10073000176701001307C7AE93982800B388E80035
:1007400083A70800B387E700678007009307F0409E
:10075000E3C817FB9307F03F63D61703938808C0DD
:100760009307F000E3EE17F9176701001307C7BFFF
:1007700093982800B388E80083A70800B387E700B0
:10078000678007009307C00AE388F8F4E3D217F7FD
:100790009307600DE396F8F623AEA1F26FF0DFF356
:1007A0008320C100032481009307800523AAF1F46C
:1007B0008324410003290100130101016780000027
:1007C0008320C10003248100B727000023A2F40086
:1007D0000329010083244100130101016780000007
:1007E0009307F00123AAF1F46FF01FEF93072000A5
:1007F00023AAF1F46FF05FEEB707048023A0A700EF
:10080000730050106F0000009307600123AAF1F4F9
:100810006FF09FEC1389C1F48327090013040600CD
:100820006386070213060400032481008320C100AD
:1008300003290100938504008324410017850200E9
:10084000130545BA130101016F008038B7C50100D7
:10085000130630009385052017850200130585B81F
:10086000EF00C029930710002320F9006FF09FFBD1
:100870008327C5006380070C03280501630C080A61
:1008800083250500034695008326450103C74501DE
:100890001377F70F3366C700A304C5001377070269
:1008A000630807083306D8401307F0006368C70AD7
:1008B000630406083387D7000343070093881600B4
:1008C0001307100023806500232A1501630CE6043A
:1008D00033871701034E07001387260013032000F8
:1008E0002380C501232AE500630E66023387E700F3
:1008F000034E070013873600130330002380C50121
:10090000232AE500630066023387E70003430700FC
:10091000938646001307400023806500232AD500F4
:100920006318E6089306000063140602B3861601F6
:100930006304D8006780000083C7450023280500B2
:1009400093F7D70F2382F500678000001306F000AD
:100950009306F6FFB38616016FF09FFD3387D7002D
:100960000346070093881600338717012380C500CC
:10097000232A150103430700138726003386E70067
:1009800023806500232AE500034306001387360011
:100990003386E70023806500232AE500034706002D
:1009A00093864600130600012380E500232AD50024
:1009B0003387D700034E0700138716001303500038
:1009C0002380C501232AE500E30E66F43387E700A0
:1009D000034E070013872600130360002380C50120
:1009E000232AE500E30066F43387E700034E07009F
:1009F00013873600130370002380C501232AE50006
:100A0000E30266F23387E700034E070013874600D0
:100A1000130380002380C501232AE500E30466F068
:100A20003387E700034E0700138756001303900037
:100A30002380C501232AE500E30666EE3387E7003D
:100A4000034E0700138766001303A0002380C5012F
:100A5000232AE500E30866EC3387E700034E07002E
:100A6000138776001303B0002380C501232AE50015
:100A7000E30A66EA3387E700034E07001387860020
:100A80001303C0002380C501232AE500E30C66E8B8
:100A90003387E700034E0700138796001303D00047
:100AA0002380C501232AE500E30E66E63387E700CD
:100AB000034E07001387A6001303E0002380C5013F
:100AC000232AE500E30066E63387E700034E0700CC
:100AD0001387B600130300012380C501232AE50014
:100AE000E31666E6B387E70083C707009386C60070
:100AF0002380F500232AD5006FF0DFE2130101FE09
:100B0000232A910083240500232C8100232821011E
:100B100023263101232E11002382040023840400A4
:100B2000930770FC2384F400238804002322B5007B
:100B3000130405003785D7171389050093090600AC
:100B40009306000013860500130505409305000079
:100B5000EF104022B70780006374F5029357F50049
:100B6000130700F82386E40093F7F70F1355750079
:100B70002382F4001375F50F2380A400238604005C
:100B80002386340123043401A304040097070000E2
:100B9000938747CE232224018320C1012328040008
:100BA00023260400232A0400232E0400232C0400FF
:100BB000232204022320F40203248101832441011F
:100BC000032901018329C10013010102678000008C
:100BD000130101FF23260100638A05086308060844
:100BE000032505003386C50013071003834645011E
:100BF000232601008327C10093F6F60F636CF700EC
:100C00008327C100938717002326F1008327C100A3
:100C1000E378F7FE93F60602E38A06FC232601003A
:100C20008327C100636CF7008327C10093871700F7
:100C30002326F1008327C100E378F7FE83C7050070
:100C40002300F500232601008327C100636CF70011
:100C50008327C100938717002326F1008327C10053
:100C6000E378F7FE93851500E312B6F8130101014E
:100C7000678000006384050403C605006300060462
:100C800003270500130101FF9386150083474701E1
:100C900093F7F70FA307F1008347F10093F70702DB
:100CA000E38607FE2300C70003C6060093861600EE
:100CB000E31E06FC1301010167800000678000004D
:100CC000630E0602638C05020327050097060000E9
:100CD000938646BA2326B500834747002328C500DC
:100CE000232A050093F7F70F2320D50293E7270067
:100CF0002302F700F32740F16384070067800000B8
:100D00003727000C977702009387C76D832607006B
:100D10003305F54013351500930710003395A700F0
:100D20003365D5002320A7006780000083270500D6
:100D3000034795008326050183C7470193F7F70F03
:100D400033E7E700A304E5006398060013D56700C6
:100D50001375150067800000130500006780000010
:100D600013070500638405066302060603280500D1
:100D7000834695008347480193F7F70FB3E6D70002
:100D8000A304D50093F7170063820704130500003E
:100D90006F008000630AA60283460800B387A5009F
:100DA000130515002380D70003280700834697000A
:100DB0008347480193F7F70FB3E6D700A304D700A2
:100DC00093F71700E39807FC678000001305000005
:100DD00067800000F32740F163960702B726000CF6
:100DE000977702009387076003A60600B307F540D4
:100DF00013B7170093071000B397E700B3E7C700D6
:100E000023A0F600B70701009387F7FF638EF50074
:100E10000327050093F5F5008347470093F7F70F85
:100E2000B3E5F5002302B700678000006380050486
:100E30009307000C63ECC70203270500232EB500BF
:100E40008347870093F7F70333E6C7001376F60F5F
:100E50002304C7008347470093F7F70F93E7170072
:100E60002302F700F32740F1638407006780000046
:100E70003727000C977702009387C7568326070011
:100E80003305F54013351500930710003395A7007F
:100E90003365D5002320A700678000006386050224
:100EA000032705002320B5022326050083474700BA
:100EB0002328050093F7F70F93E727002302F70095
:100EC000F32740F163840700678000003727000C98
:100ED0009777020093870751832607003305F54073
:100EE00013351500930710003395A7003365D5001F
:100EF0002320A70067800000638205020327050006
:100F00002322B5028347470093F7F70F93E7870043
:100F10002302F700F32740F1638407006780000095
:100F20003727000C977702009387C74B832607006B
:100F30003305F54013351500930710003395A700CE
:100F40003365D5002320A700678000006388051063
:100F50006306061003270500834695008347470173
:100F600093F7F70FB3E6D700A304D50093F7070272
:100F70006386070E9307F00063F6C70E83C705006C
:100F8000130500012300F70083C715002300F700B5
:100F900083C725002300F70083C735002300F7002F
:100FA00083C64500930750002300D700630CF50C5F
:100FB00083C65500930760002300D7006304F50C37
:100FC00083C66500930770002300D700630CF50A01
:100FD00083C67500930780002300D7006304F50AD9
:100FE00083C68500930790002300D700630CF508A3
:100FF00083C695009307A0002300D7006304F5087B
:1010000083C6A5009307B0002300D700630CF50644
:1010100083C6B5009307C0002300D7006304F5061C
:1010200083C6C5009307D0002300D700630CF504E6
:1010300083C6D5009307E0002300D7006304F504BE
:1010400083C6E500930700012300D7006312F5066D
:1010500083C7F5002300F700678000001305000038
:101060006780000083C70500130510002300F70008
:10107000630AA60083C71500130520002300F700AC
:101080006314A6006780000083C7250013053000A5
:101090002300F700E308A6FE83C7350013054000D0
:1010A0002300F700E300A6FE130506006FF05FEFD4
:1010B0001305F000678000008327050003479500B3
:1010C00083C74701A304050033E5E7001375E5096D
:1010D000678000008327050003C587011375F50F9E
:1010E00067800000832705000347950083C74701F9
:1010F00093F7F70F33E7E700A304E50013F50706BE
:1011000067800000032705008347C70093F7F70FA8
:1011100093E707042306F700678000000327050014
:101120008347C70093F7F70B2306F700678000009B
:10113000130101FD23229102938401F503A304000E
:10114000232E3101232C4101232A5101232861013F
:101150002326110223248102232021039308230044
:1011600013081025130B0500938A0500130A0600C7
:10117000938906006364181F177802001308082972
:1011800033086800034908000344180023A0140131
:1011900013080005631A09011304B4FC1374F40F57
:1011A0009306100063FA8602175501001305852186
:1011B000032481028320C102832441020329010206
:1011C0008329C101032A8101832A4101032B0101E3
:1011D000130101036F10804503A604009306102538
:1011E0001306B60063E8C61A23A0C4009306800164
:1011F0006318DA0863964A0983A6040013061025CB
:101200003304DB00636C860A638209089775020069
:101210009385C51F13060B00B385D5001385090000
:101220002326F1002324E100EF10400B0327810067
:101230008327C10023A0840083A60400131627007F
:10124000930510253304D60063E4850C63840710EE
:10125000977502009385851BB385D500138507001C
:10126000EF10C00723A0840003A7040093071025F4
:101270006302F70217550100130505236FF05FF3B2
:1012800017550100130585156FF09FF223A0840008
:101290006FF09FFA8320C10203248102832441025C
:1012A000032901028329C101032A8101832A410103
:1012B000032B010113010103678000009306102531
:1012C000130604009755010093850520175501006A
:1012D0001305850D2326F1002324E100EF10802360
:1012E0009306F0FF032781008327C100E306DBF4A8
:1012F00013060B009305F0FF175501001305C510E9
:10130000EF1040218327C100032781006FF0DFF237
:101310009306102513060400975501009385C51AFE
:1013200017550100130545082324E100EF10801E26
:10133000032781009307F0FFE308F7F21306070085
:101340009305F0FF175501001305C510EF10801C21
:101350006FF09FF123A084006FF01FF1930610251A
:10136000138608009755010093850516175501004F
:10137000130585032326F1002324E100EF108019D3
:101380008327C10003278100130900001304000014
:101390006FF01FE093061025975501009385C51245
:1013A00017550100130545002326F1002324E10011
:1013B000EF1040168327C100032781006FF01FE361
:1013C000930605009387050013071000130680019C
:1013D00093058001130500246FF09FD5130101FFD1
:1013E00023248100130406002322910013860600A3
:1013F000938405009305040023261100EF00400BA1
:1014000083A704001305000063C807000325040038
:101410003305F540133515008320C10003248100F6
:101420008324410013010101678000006350D0084C
:10143000938EF6FF032E060093FECEFF9307450022
:10144000B38EFE00834735000343250003C73500F4
:1014500083C82500834F05000348150003CF05000E
:1014600083C615001313030193980801939787010E
:1014700013178701B3E7670033671701B3E7F70175
:10148000131888003367E70193968600B3E70701D6
:101490003367D7008B87E70013054500330EFE0046
:1014A00093854500E390AEFA2320C60167800000D3
:1014B000130101F9B7170000232E31059387078721
:1014C000B7F9FFFF232C4105232861052320A1053F
:1014D0002326110623248106232291062320210797
:1014E000232A5105232671052324810523229105F2
:1014F000232EB1032320A100232CB100232EC100F1
:1015000093890979130B0000178A0200130A0AB4A1
:10151000175D0100130D4D082322F1008327010000
:10152000938B0900930A0000B38D67018327410064
:101530009306F06217590100130909023387FB0073
:1015400093870B0063C4E600930707009387072483
:10155000B304FA001754010013040405032709001B
:10156000B38C5D01130C04FF2326E10293050C00EC
:1015700013850C00930640001306C102130C4C00A7
:10158000EFF0DFEA938C8C01E3128CFE8327C1021B
:1015900013C7F7FF1357F741B3F7E70093D7874017
:1015A0001307F00F6354F7009307F00F2380F40044
:1015B000130949009384140013040401E3102DFB64
:1015C000938A2A0093076001938B0B01E390FAF64C
:1015D000130B0B03930700219389090BE310FBF412
:1015E000B7F9FFFF23280100232001002322010077
:1015F0001384811A1309F0629389097983274100C2
:101600002324010093045000139C4700832701000A
:101610002326F1000327C1009387810C975A01000C
:10162000938A8A07B38BE70093070C0B174B0200D2
:10163000130B4BA2232AF10003A70A00832C4101BC
:10164000930D0B002326E10213050C00130D00007F
:101650006F00800113850C006354990133853C01B0
:10166000938D0D05938C0C0B130D1D0093850D00B0
:101670003305A400930600051306C102EFF01FDB3B
:10168000E31A9DFC8327C1021307F00F93C6F7FFEF
:1016900093D6F641B3F7D70093D787406354F7004A
:1016A0009307F00F2380FB00938A4A0097570100AD
:1016B00093878704938B1B00130B0B19E39E57F73B
:1016C000832781008326C100130C0C021387270097
:1016D000938686012324E100930780002326D1000E
:1016E000E31AF7F20327410083270101130767017B
:1016F0002322E10003270100938727002328F1001C
:10170000130707062320E10003278100E398E7EE93
:101710001389812417540100130404FE976A010001
:10172000938A4A83975C0100938C8C22130C0900E6
:1017300093090900930BF00F832704009384810C15
:10174000138B0A002326F10293050B001385040076
:10175000930600061306C10293840406EFF01FCD22
:10176000130B0B06E3129CFE8327C10293C6F7FFFF
:1017700093D6F641B3F7D70093D7874063D4FB00E5
:101780009307F00F2380F900130444009389190094
:10179000938A0A18E3928CFA1383E12D975601007D
:1017A0009386861D175601001306861A130503003B
:1017B000938E0600130EF00F832706001388060091
:1017C000930509008308080003CF050093851500E1
:1017D00013081800B388E803B3871701E314B3FEB6
:1017E00093D7B7406350FE109307F00F2300F50026
:1017F000130646001305150093866609E39ECEFA8C
:1018000083076A3703067A379306000063D6C7005A
:10181000930706009306100003068A3763D6C700B5
:10182000930706009306200003069A3763D6C70085
:1018300093070600930630000306AA3763D6C70055
:1018400093070600930640000306BA3763D6C70025
:101850009307060093060D000307CA3763D6E70017
:1018600093070700930660000307DA3763D6E700A3
:1018700093070700930670000307EA3763D6E70073
:1018800093070700930680000307FA3763D6E70043
:101890009307070093069000032781012320D700B8
:1018A0000327C1012300F7008320C106032481061A
:1018B00083244106032901068329C105032A8105E2
:1018C000832A4105032B0105832BC104032C8104CA
:1018D000832C4104032D0104832DC103130101074F
:1018E0006780000093C5F7FF93D5F541B3F7B700C4
:1018F0006FF0DFEF930E05001308000063DC0500B6
:10190000B337A000B305B040B385F540B30EA04097
:101910001308F0FF63DC0600B337C000B306D04005
:101920001348F8FFB386F6403306C040930806001C
:1019300013870600138E0E00138505006390062A98
:1019400097660200938606C963F6C50EB7070100C5
:101950006378F60C9307F00FB3B7C700939737007F
:101960003357F600B386E60083C60600B387F60059
:10197000930600023387F640638CF600B395E500CA
:10198000B3D7FE00B318E60033E5B700339EEE0090
:1019900013D30801B35665029395080193D5050149
:1019A00093570E0133776502138606003385D502FF
:1019B00013170701B367F70063FEA700B38717018A
:1019C0001386F6FF63E8170163F6A7001386E6FFA8
:1019D000B3871701B387A74033F76702131E0E01C1
:1019E000135E0E01B3D7670213170701336EC701E9
:1019F000B386F50213870700637CDE00338EC801CF
:101A00001387F7FF63661E016374DE001387E7FF29
:101A1000131506013365E500130300006F00400E47
:101A20003707000193070001E36CE6F2930780019A
:101A30006FF01FF36316060093081000B3D8E80296
:101A4000B707010063FCF80C9307F00F63F417016C
:101A500013078000B3D7E800B386F60083C70600FB
:101A600093060002B387E7003387F6406392F60CD3
:101A7000B38515411303100013D50801139608010F
:101A80001356060113570E01B3D7A502B3F6A502EC
:101A9000B305F6029396060133E7E6009386070046
:101AA000637EB700330717019386F7FF636817015A
:101AB0006376B7009386E7FF330717013307B74014
:101AC000B377A702131E0E01135E0E013357A70250
:101AD0009397070133EEC7013306E6029307070029
:101AE000637CCE00338EC8019307F7FF63661E0147
:101AF0006374CE009307E7FF139506013365F50085
:101B000093050300630A0800B337A000B3056040E3
:101B1000B385F5403305A04067800000B70700019A
:101B200013070001E3E8F8F2130780016FF09FF25A
:101B3000B398E80033D5F500339EEE00B395E50089
:101B4000B3D7FE0093DE080133E6B700B357D503E1
:101B50009395080193D505013377D50313550601F5
:101B600013830700B386F502131707013367A70035
:101B7000637ED700330717011383F7FF63681701EC
:101B80006376D7001383E7FF33071701B306D74007
:101B900033F7D6031316060113560601B3D6D60340
:101BA00013170701B387D502B365C7001387060073
:101BB00063FEF500B38515011387F6FF63E8150191
:101BC00063F6F5001387E6FFB385150113130301D0
:101BD000B385F5403363E3006FF01FEA63E6D51881
:101BE000B707010063F4F6041307F00FB337D7000B
:101BF0009397370033D5F600176702001307879DC8
:101C00003307A700034707003307F70093070002D5
:101C10003383E7406396E70213051000E3E2B6EE74
:101C200033B5CE00134515006FF09FED3707000167
:101C300093070001E3E0E6FC930780016FF09FFB50
:101C4000B357E600B3966600B3E6D70033D5E50098
:101C5000B397650033D7EE0013DF0601B365F700D5
:101C60003377E5039398060193D8080193D70501CC
:101C7000331666003355E50313170701B367F70002
:101C8000B38FA802130E050063FEF701B387D700D8
:101C9000130EF5FF63E8D70063F6F701130EE5FFB7
:101CA000B387D700B387F74133F7E703939505016F
:101CB00093D50501B3D7E703131707013367B700BF
:101CC000B388F80293850700637E17013307D700B6
:101CD0009385F7FF6368D700637617019385E7FF65
:101CE0003307D70013150E01370F01003365B50018
:101CF0009306FFFF9355050133071741B378D500CD
:101D0000B376D60013560601338ED802B386D502B9
:101D100093570E01B388C802B388D800B387170160
:101D2000B385C50263F4D700B385E50193D60701F7
:101D3000B385B6006366B702E310B7CE370701007C
:101D40001307F7FFB3F7E70093970701337EEE0021
:101D5000B39E6E00B387C70113030000E3F2FEDAFF
:101D60001305F5FF6FF05FCB1303000013050000B0
:101D70006FF01FD99308050093870500130806002C
:101D800013850600138308006394062897660200F3
:101D90009386468463F6C50E370701006378E60C28
:101DA0001307F00F3337C700131737003355E6001A
:101DB000B386A60083C60600130500023387E6003B
:101DC000B306E540630CE500B395D70033D7E800D0
:101DD0003318D600B365B7003393D8009358080181
:101DE000B3D61503131608011356060193570301C2
:101DF00033F7150313850600B305D6021317070141
:101E0000B367F70063FEB700B38707011385F6FFDA
:101E100063E8070163F6B7001385E6FFB3870701A0
:101E2000B387B74033F717031313030113530301A9
:101E3000B3D717031317070133636700B306F6021E
:101E400013860700637CD300330368001386F7FF13
:101E5000636603016374D3001386E7FF131505015E
:101E60003365C500930500006F00400E3705000183
:101E700013070001E36CA6F2130780016FF01FF354
:101E800063160600130710003358C7023707010016
:101E90006370E80C1307F00F6374070113058000EB
:101EA0003357A800B386E60003C7060013060002F6
:101EB0003307A700B306E6406316E60AB387074177
:101EC00093051000935808011316080113560601D4
:101ED00013570301B3F61703B3D7170393960601FD
:101EE00033E7E600330EF60213850700637EC70171
:101EF000330707011385F7FF636807016376C7019E
:101F00001385E7FF330707013307C741B37717038B
:101F10001313030113530301335717039397070157
:101F200033E36700B306E60213060700637CD300C1
:101F3000330368001306F7FF636603016374D3007D
:101F40001306E7FF131505013365C5006780000020
:101F50003707000113050001E364E8F4130580016D
:101F60006FF01FF43318D80033D5E7003393D8004F
:101F7000B397D70033D7E800935808013366F700CA
:101F8000337715039317080193D70701935506017B
:101F900033551503131707013367B700B386A7023C
:101FA00093050500637ED700330707019305F5FF0E
:101FB000636807016376D7009305E5FF33070701E0
:101FC000B306D74033F7160313160601135606015E
:101FD000B3D61603131707013385D702B367C700BB
:101FE0001387060063FEA700B38707011387F6FF78
:101FF00063E8070163F6A7001387E6FFB3870701CD
:1020000093950501B387A740B3E5E5006FF09FEB1B
:1020100063E6D5183707010063F4E6041307F00FF1
:10202000B335D7009395350033D5B6001757020066
:102030001307475A3307A700034707001305000299
:102040003307B700B305E5406316E502130510003A
:10205000E3EEF6EE33B5C800134515006FF01FEF41
:102060003707000193050001E3E0E6FC93058001DA
:102070006FF09FFB3358E600B396B6003368D80084
:1020800033D3E700935E0801B376D303B397B70069
:1020900033D7E800331EB6003366F7009317080104
:1020A00093D70701135706013353D30393960601C1
:1020B00033E7E600338F670213050300637EE70111
:1020C000330707011305F3FF636807016376E70130
:1020D0001305E3FF330707013307E741B376D7035F
:1020E0003357D703939606013383E702931706010C
:1020F00093D70701B3E7F6001306070063FE6700F6
:10210000B38707011306F7FF63E8070163F667006B
:102110001306E7FFB387070113150501B70E01008A
:102120003365C5009386FEFF13560E011358050153
:10213000B38767403373D500B376DE00330ED30226
:10214000B306D80213570E013303C3023303D3007F
:10215000330767003308C8026374D7003308D80117
:10216000935607013388060163E60703E39C07CF14
:10217000B70701009387F7FF3377F70013170701BD
:10218000337EFE00B398B8003307C7019305000003
:10219000E3FEE8DA1305F5FF6FF0DFCC93050000EE
:1021A000130500006FF09FDA930505009306000009
:1021B00013060000130500006F300036130101FF05
:1021C0009305000023248100232611001304050039
:1021D000EF30003E03A581F38327C5036384070026
:1021E000E780070013050400EFE08FAB130101FF48
:1021F00023248100976702009387C71E176402009B
:102200001304441EB3878740232291002326110024
:1022100093D42740638004029387C7FF33848700E9
:10222000832704009384F4FF1304C4FFE7800700AE
:10223000E39804FE8320C10003248100832441002D
:102240001301010167800000130101FF23248100B5
:102250002320210117640200130484181769020067
:1022600013090918330989402326110023229100FC
:1022700013592940630E09009304000083270400CA
:102280009384140013044400E7800700E31899FEC8
:10229000176402001304C414176902001309891497
:1022A0003309894013592940630E09009304000043
:1022B000832704009384140013044400E78007007C
:1022C000E31899FE8320C100032481008324410088
:1022D000032901001301010167800000B3C7A500B5
:1022E00093F73700B308C5006392070693073000E1
:1022F00063FEC7049377350013070500639807064C
:1023000013F6C8FF930706FE636CF708637CC702E9
:10231000938605009307070003A8060093874700EC
:102320009386460023AE07FFE3E8C7FE9307F6FF58
:10233000B387E74093F7C7FF938747003307F7005A
:10234000B385F50063681701678000001307050077
:10235000E37C15FF83C7050013071700938515005D
:10236000A30FF7FEE36817FF6780000083C6050030
:102370001307170093773700A30FD7FE9385150037
:10238000E38007F883C6050013071700937737002B
:10239000A30FD7FE93851500E39A07FC6FF05FF655
:1023A00083A6450083A2050083AF850003AFC50067
:1023B00083AE050103AE450103A3850103A8C50152
:1023C0002322D70083A60502232057002324F701E8
:1023D0002326E7012328D701232AC701232C6700DE
:1023E000232E07012320D7021307470293854502B6
:1023F000E368F7FA6FF09FF11303F000130705008D
:10240000637EC3029377F7006390070A639205081F
:10241000937606FF1376F600B386E6002320B70016
:102420002322B7002324B7002326B7001307070190
:10243000E366D7FE6314060067800000B306C3405E
:102440009396260097020000B38656006780C60068
:102450002307B700A306B7002306B700A305B700FC
:102460002305B700A304B7002304B700A303B700F4
:102470002303B700A302B7002302B700A301B700EC
:102480002301B700A300B7002300B7006780000056
:1024900093F5F50F93968500B3E5D5009396050166
:1024A000B3E5D5006FF0DFF69396270097020000A2
:1024B000B386560093820000E78006FA93800200FC
:1024C000938707FF3307F7403306F600E378C3F638
:1024D0006FF0DFF3130101FC2324C1022326D10294
:1024E0002328E102232AF102232C0103232E1103C6
:1024F000138605008325850093068102232E110093
:102500002326D100EF0000378320C101130101040D
:1025100067800000130101FC2324C1022326D1029D
:1025200003A301F42322B1022328E102232AF102AA
:10253000232C0103232E11038325830093064102DC
:102540001306050013050300232E11002326D100D6
:10255000EF0040328320C1011301010467800000B5
:10256000130101FC232C81021304050013850500CF
:10257000232A9102232E110293840500EF00C02626
:102580001307150097460100938686EC232EE10081
:1025900083278403130701022324D102232AE100A5
:1025A0009306100013072000232091022322A1028A
:1025B0002326D102232CE10083258400638E0704A7
:1025C0008397C500139727016342070203A74506B7
:1025D000B7260000B3E7D700B7E6FFFF9386F6FF04
:1025E0003377D7002396F50023A2E50613064101B1
:1025F00013050400EF30503F8320C10303248103FF
:102600003335A0003305A040832441031365A500A2
:102610001301010467800000130504002326B100A4
:10262000EF3000748325C1006FF09FF9930505001A
:1026300003A501F46FF0DFF2130101FE232821014D
:1026400003A90500232C8100232A9100232E1100C9
:10265000232631012324410113840500930405003E
:1026600063020904832909006388090203AA090097
:10267000630E0A0083250A0063840500EFF0DFFB88
:1026800093050A0013850400EF3050059385090077
:1026900013850400EF3090049305090013850400AE
:1026A000EF30D00393050400032481018320C1018E
:1026B000032901018329C100032A81001385040035
:1026C00083244101130101026F30500183A701F4FB
:1026D000638AA7108325C504130101FE232A9100F4
:1026E000232E1100232C81002328210123263101D0
:1026F0009304050063800504130900009309000892
:10270000B387250103A40700630E040093050400AA
:102710000324040013850400EF30407CE31804FE1A
:1027200083A5C40413094900E31C39FD1385040083
:10273000EF30C07A83A50404638605001385040086
:10274000EF30C07903A48414630004021389C41415
:10275000630C240193050400032404001385040082
:10276000EF30C077E31889FE83A544056386050032
:1027700013850400EF30807683A784036386070403
:1027800083A7C40313850400E780070003A4042E75
:10279000630C04028325040063860500138504008E
:1027A000EFF09FE993050400032481018320C10118
:1027B000032901018329C1001385040083244101F9
:1027C000130101026F3080718320C1010324810154
:1027D00083244101032901018329C100130101025E
:1027E00067800000678000009377350013070500BD
:1027F000639C0704B7867F7F9386F6F79305F0FF07
:102800000326070013074700B377D600B387D70026
:10281000B3E7C700B3E7D700E384B7FE8346C7FF3B
:102820000346D7FF8347E7FF3307A74063800604CB
:10283000630A06023335F0003305E5001305E5FFB2
:1028400067800000E38806FA834707001307170034
:1028500093763700E39807FE3307A7401305F7FF89
:10286000678000001305D7FF678000001305C7FFCE
:1028700067800000130101E0232E111E2328211F71
:10288000232C811D2328A11D138C0500130906008C
:10289000232AD100232C811E232A911E2326311F97
:1028A0002324411F2322511F2320611F232E711D2A
:1028B000232A911D2326B11D130D0500EF60D03989
:1028C00083270500138507002326F102EFF0DFF1CF
:1028D0002324A1022320011023220110232401100C
:1028E0002326011063060D0083278D03E388070E5E
:1028F0000317CC00B72600009317070193D70701F1
:1029000033F6D7006318060203264C06B367D700D8
:102910009397070137E7FFFF93D707411307F7FFA7
:102920003377E6002316FC00939707012322EC0679
:1029300093D7070113F787006300072E03270C01C5
:10294000630C072C93F7A7011307A0006388E72EF9
:102950009307C111930B0900232AF10E93880700F6
:1029600083C70B00232E010E232C010E232E010002
:1029700023280102232A0102232C0102232201041D
:102980002324010423260100130A0001638807227F
:1029900013840B0013075002638CE7308347140045
:1029A00013041400E39A07FEB3047441630874210E
:1029B0000327C10F8327810F23A0780133079700D6
:1029C0009387170023A29800232EE10E232CF10EEB
:1029D00013077000938888006344F72E0327C10013
:1029E00083470400330797002326E1006388071C10
:1029F00083441400A30B010C13041400930CF0FF88
:102A000093090000930A000013099000130BA00221
:102A1000938D0800130414001307A005938704FE88
:102A20006368F70497560200938606CF93972700B2
:102A3000B387D70083A70700B387D7006780070055
:102A400093090000138604FD834404009397290032
:102A5000B387370193971700B309F600138604FD77
:102A600013041400E372C9FE938704FEE37CF7FAB3
:102A700093880D0063840414230E9114A30B010C9E
:102A8000130B100013091000930BC115232801002C
:102A9000930C00002322010223200102232C0100B9
:102AA00013FF2A0063040F00130B2B0093FE4A0848
:102AB0008327C10F63960E00B3866941E348D06255
:102AC0000347710D630A07020327810F9306710DF7
:102AD00023A0D80093871700930610001307170050
:102AE00023A2D800232EF10E232CE10E93067000B2
:102AF0009388880063C0E64E630A0F020327810FA4
:102B00009306810D23A0D800938727009306200009
:102B10001307170023A2D800232EF10E232CE10E59
:102B20009306700093888800E3C6E66E13070008DA
:102B3000E380EE42B38C2C41E34C904D13F70A1026
:102B4000E31C072C0327810FB387270123A07801FB
:102B50001307170023A22801232EF10E232CE10EC8
:102B60009306700063CAE65A9388880093FA4A0075
:102B700063860A00B38469416340905C63D4690151
:102B800093090B000327C100330737012326E10017
:102B9000E39A075283270101232C010E6388070063
:102BA0008325010113050D00EF3040339308C11157
:102BB000930B040083C70B00E39C07DC8327C10F42
:102BC000638407006F1010308357CC0093F707041D
:102BD000638407006F20402E8320C11F0324811FC0
:102BE0000325C1008324411F0329011F8329C11E1E
:102BF000032A811E832A411E032B011E832BC11D24
:102C0000032C811D832C411D032D011D832DC11C0F
:102C1000130101206780000093050C0013050D00CF
:102C2000EF200079630405006F2000298357CC0052
:102C30001307A00093F7A701E39CE7D08317EC00EC
:102C4000E3C807D0832641011306090093050C0051
:102C500013050D00EF20C0692326A1006FF0DFF7F8
:102C600013050D00EF60407F8327450013850700A3
:102C70002324F104EFF05FB79307050013050D005F
:102C8000938407002322F104EF60007D83278500F1
:102C9000232CF102638404006F10C00883440400F5
:102CA0006FF05FD78344040093EA0A026FF09FD667
:102CB000B3047441E31E74CF834704006FF01FD345
:102CC0001306410F93050C0013050D00EFB0D05A09
:102CD000E31C05EE9308C1116FF05FD093F78A00F3
:102CE00093880D00638407006F10800783274101DC
:102CF0001305010C2328B1019387770093F787FF11
:102D000083A5070003A6470093878700232AF100C5
:102D1000EF2011688327010C832801012320F11083
:102D20008327410C2322F1108327810C2324F110E7
:102D30008327C10C2326F11013050110232811014C
:102D4000EF608069232EA10C9307200083280101E6
:102D50006314F5006F104045930710006314F500ED
:102D60006F10805F930710066394F4006F20402774
:102D7000930710046394F4006F10901813F7F4FD98
:102D80009307F0FF232EE1026394FC006F20C0291B
:102D9000930770046314F7006F208029032EC1107D
:102DA00023285105832E0110032F4110832F8110FA
:102DB00093E70A1063540E006F10906123240106FC
:102DC000938A0700232801000327C10393076004A7
:102DD0006314F7006F10106493075004232011054B
:102DE0006314F7006F20000E130B010C9307010E04
:102DF0001307C10D1308C10E93860C0013062000A3
:102E000093050B0013050D002320D10D2322D103C0
:102E10002322E10D2320E1032324F10D232EF101D0
:102E20002326C10D232CC101EF5080290327C103A4
:102E300093077004032E8101832FC101032F010228
:102E4000832E410283280104930B05006304F700DD
:102E50006F20C0458327010593F71700638407009F
:102E60006F20C01B8327C10EB3877741232EF1004B
:102E70000327C10D93077004232CE1000327C1032E
:102E80006314F7006F10D04B0327C103930760044E
:102E90006314F7006F105079832781018325C103E4
:102EA000130610049387F7FF232EF10C13F7F40F8A
:102EB000930600006398C5001307F7001377F70F18
:102EC000930610002302E10E1307B00263DA070035
:102ED0000327810193071000B387E7401307D0024F
:102EE000A302E10E130790006344F7006F20801ED9
:102EF0001305310F930505009306A000130E30064D
:102F000033E7D70213860500138807009385F5FF82
:102F100013070703A30FE6FEB3C7D702E3420EFF72
:102F20009387070393F6F70FA38FD5FE9307E6FF6A
:102F300063E4A7006F2000391307610E6F00800063
:102F400083C607002300D7009387170013071700D5
:102F5000E398A7FE9307510F1307610EB387C7408D
:102F6000B307F7001307410EB387E740232AF102A6
:102F7000832641030327C101930710003389E6002C
:102F800063C4E7006F20402B832781023309F900D7
:102F900083270105134BF9FF135BFB4193FAF7BF3E
:102FA00093EA0A10337B69012322010223200102E4
:102FB000232C010083278106639407006F10903F44
:102FC0009307D002A30BF10C930C0000130B1B0012
:102FD0006FF01FAD1306410F93050C0013050D0094
:102FE0002320D105232EE103EFB01029E316050EAF
:102FF0008327C10F832E0104032FC1039308C1113E
:103000006FF09FAF0327810F938C17008327C101B7
:103010009306100023A078019304170013898800F9
:10302000E3DCF6389307100023A2F800232E910F5B
:10303000232C910E93077000E3C2977683278102B9
:103040000327C10293841400B38CFC002322F900EF
:103050002320E900232E910F232C910E930770005B
:1030600013098900E3CE9774832701109386140017
:103070009305010B2320F10C832741101305010C4C
:10308000232CD1002322F10C832781102328010A4D
:10309000232A010A2324F10C8327C110232C010ABF
:1030A000232E010A2326F10CEF0001018326810162
:1030B0008327C1019308890013870600938DF7FFCA
:1030C000E300053213881B00B38CBC0123200901E7
:1030D0002322B901232E910F232CD10E93077000C8
:1030E000E3C2D7529307090113872400138908000C
:1030F00093880700032641039306410E2320D9003D
:10310000B30796012322C900232EF10E232CE10ED2
:1031100093067000E3DCE6A41306410F93050C0050
:1031200013050D00EFB050156318057A8327C10F02
:103130009308C1116FF09FA30327810F974D0200E1
:10314000938D4D741309700063489A006F00400519
:10315000938404FF63569A049387070113071700AB
:1031600023A0B80123A24801232EF10E232CE10E47
:1031700093888800E35EE9FC1306410F93050C0079
:1031800013050D00EFB0500F63180574938404FF0E
:103190008327C10F0327810F9308C111E34E9AFAC9
:1031A000B38797001307170023A0B80123A2980044
:1031B000232EF10E232CE10E93067000E3D0E69C43
:1031C0001306410F93050C0013050D00EFB0D00A54
:1031D000631405708327C10F6FF05F9A13050D000C
:1031E000EF2010386FF0CFF00327410193880D00D6
:1031F000A30B010C8327070013074700232AE100D4
:10320000230EF114130B100013091000930BC115BA
:103210006FF0DF8783274101A30B010C93880D001A
:1032200083AB0700938D4700E3880B4C9307F0FFB7
:103230006394FC006F10400613860C009305000099
:1032400013850B00232A1101EF6050592328A10098
:1032500083284101631405006F1010348327010196
:10326000232AB10123280100338977418347710D57
:10327000134BF9FF135BFB412322010223200102C0
:10328000232C0100337B6901930C0000E38A078043
:10329000130B1B006FF0DF8083440400930780064C
:1032A000E38EF43E93EA0A046FF0CFF683264101E1
:1032B00093F70A0293880D0003A706009386460041
:1032C000232AD100E392072893F70A01E39E0774AB
:1032D00093F70A04638407006F10803793FA0A207B
:1032E000E3840A748327C100930B04002300F700D2
:1032F0006FF05F8C834404009307C006E386F43EBE
:1033000093EA0A016FF00FF103274101B787FFFF2E
:1033100093C7078393880D00231CF10C832D0700AE
:1033200093074700232AF100974702009387873BC2
:103330002328F1021309000013EB2A009307200051
:1033400093048007A30B010C9306F0FF6382DC203B
:10335000B3E62D01937AFBF7639A061E63900C2661
:103360006398071013791B00930B011CE314091ACF
:103370008347710D138B0C0063D42C01130B0900D0
:10338000232801002322010223200102232C010013
:10339000E39007F06FF0CFF093880D0093EA0A01F5
:1033A00093F70A02E384070A83274101938B77008E
:1033B00093FB8BFF83AD0B0003A94B0093878B001E
:1033C000232AF10013FBFABF930700006FF09FF769
:1033D00093880D0013EB0A0193770B02E388070E25
:1033E00083274101938B770093FB8BFF93878B009F
:1033F000232AF10083AD0B0003A94B0093071000B3
:103400006FF05FF48344040093EA0A086FF08FE0E2
:103410008344040093EA8A006FF0CFDF93880D00A5
:1034200093EA0A0193F70A02E3880704832741011C
:10343000938B770093FB8BFF83A74B0083AD0B002F
:1034400013878B00232AE10013890700E3CE0704CA
:103450009307F0FF138B0A006384FC02B3E72D018E
:1034600013FBFAF7639E070063920C02930A0B00AA
:10347000930C000013090000930B011C6FF05FEF29
:10348000E312093693079000E3EEB735938D0D03F1
:10349000A30FB11B930A0B0013091000930BF11B30
:1034A0006FF01FED832741018344040083A90700C7
:1034B00093874700232AF10063DE09D4B309304122
:1034C00093EA4A006FF00FD58344040093EA1A0090
:1034D0006FF04FD48347710D83440400639C07D27F
:1034E00093070002A30BF10C6FF0CFD283440400CA
:1034F00093EA4A006FF00FD29307B00283440400AE
:10350000A30BF10C6FF00FD1834404009306140059
:10351000639464016F105057138604FD13840600F2
:10352000930C0000636CC9CE8344040093972C0075
:10353000B387970193971700B38CC700138604FDD8
:1035400013041400E372C9FE6FF04FCD138B0A0011
:1035500093061000E386D7F293062000638CD7060B
:10356000930B011C1317D90193F77D0093DD3D00E8
:1035700093870703B36DB70113593900A38FFBFE7F
:1035800033E72D0113860B00938BFBFFE31C07FC35
:1035900093761B00638A0606930600036386D706AC
:1035A0001306E6FF9307011CA38FDBFE3389C74098
:1035B000930A0B00930B06006FF09FDB13071000BC
:1035C0006394E7006F10D02213072000138B0A00CA
:1035D000E398E7F883260103930B011C93F7FD00A2
:1035E000B387F60003C7070093DD4D009317C901A9
:1035F000B3EDB70113594900A38FEBFEB3E72D01DB
:10360000938BFBFFE39C07FC9307011C33897741F5
:10361000930A0B006FF0DFD513075006E354979E13
:10362000032701109305010B1305010C2320E10C66
:103630000327411023201105232EF1022322E10C40
:10364000032781102328010A232A010A2324E10CDD
:103650000327C110232C010A232E010A2326E10C83
:10366000EFF090258327C103832801046318053CEC
:103670000327810F974602009386C60923A0D8002E
:1036800093871700930610001307170023A2D80092
:10369000232EF10E232CE10E9306700093888800F0
:1036A000E3CCE62A0327C10D8326C1016358D76402
:1036B0000327C102832681029388880023ACE8FE99
:1036C0000327810FB387D70023AED8FE1307170057
:1036D000232EF10E232CE10E9306700063C6E67EC6
:1036E0000327C1019304F7FF635290C80327810F9A
:1036F000E3549A28130970006F00C000938404FFFC
:10370000E35C9A2693870701130717009746020088
:103710009386461823A0D80023A24801232EF10E39
:10372000232CE10E93888800E35AE9FC1306410F2D
:1037300093050C0013050D00EFB00034631E05184F
:103740008327C10F0327810F9308C1116FF01FFB5F
:10375000B38D69416350B0BF0327810F6354BA072B
:10376000130E70006F00C000938D0DFF635CBA05EF
:103770009387070113071700974602009386861167
:1037800023A0D80023A24801232EF10E232CE10E02
:1037900093888800E35AEEFC1306410F93050C0052
:1037A00013050D00EFB0402D63180512938D0DFF2A
:1037B0008327C10F0327810F9308C111130E7000D7
:1037C000E348BAFB974602009386C60CB387B7015D
:1037D0001307170023A0D80023A2B801232EF10E4F
:1037E000232CE10E930670009388880063D4E6B41E
:1037F0001306410F93050C0013050D00EFB0C02711
:10380000631C050C8327C10F9308C1116FF08FB2A1
:103810000327810F63529A07930D70006F00C00059
:10382000938C0CFF635A9A059387070113071700BF
:10383000974602009386060623A0D80023A24801DB
:10384000232EF10E232CE10E93888800E3DAEDFCA1
:103850001306410F93050C0013050D00EFB0C021B6
:10386000631C0506938C0CFF8327C10F0327810F70
:103870009308C111E34A9AFB97460200938686019A
:10388000B38797011307170023A0D80023A298013C
:10389000232EF10E232CE10E9306700093888800EE
:1038A00063DEE6A81306410F93050C0013050D0017
:1038B000EFB0801C631205028327C10F9308C1116A
:1038C0006FF0CFA71306410F93050C0013050D00F1
:1038D000EFB0801A630005AC83250101638605AE55
:1038E00013050D00EF20805F6FF00FAE0327810FEF
:1038F000974D0200938D0DF96354DA0C2326810451
:1039000013040D00138D060093860D00930F7000B5
:10391000930D0B00232EE103138B09002320D10507
:103920009389040093040C00138C0B00930B090083
:10393000138906006F00C000130D0DFF6358AA0520
:10394000938707011307170023A0280123A248012A
:10395000232EF10E232CE10E93888800E3DEEFFC8A
:103960001306410F9385040013050400EFB0C01047
:103970006310057C130D0DFF8327C10F0327810FF3
:103980009308C111930F7000E34CAAFB93060D003E
:10399000032FC103130D0400832E01040324C1046B
:1039A0001306090013890B00930B0C00138C040001
:1039B0009384090093090B00138B0D00930D0600EF
:1039C000B387D7001307170023A2D80023A0B8019C
:1039D000232EF10E232CE10E9306700093888800AD
:1039E00063D0E68E1306410F93050C0013050D00FE
:1039F0002320D105232EE103EFB00008E31E05ECE0
:103A00008327C10F832E0104032FC1039308C11123
:103A10006FF00F8B1306410F93050C0013050D007B
:103A2000232ED103EFB04005E31805EA8327C10F29
:103A3000832EC1039308C1116FF04F8F8326C10DF0
:103A40006358D066032781018326C10193040700D0
:103A500063CEE636635690020327810FB387970043
:103A600023A078011307170023A29800232EF10E3C
:103A7000232CE10E9306700093888800E3C6E63895
:103A800013C7F4FF1357F741B3F4E4000327810190
:103A9000B3049740634290488326810113F70A409C
:103AA000B384DB00E31407128326C10D0327C10191
:103AB00063C6E60013F71A00E30C07360327C102BA
:103AC000032681029388880023ACE8FE0327810F38
:103AD000B387C70023AEC8FE13071700232EF10ECD
:103AE000232CE10E130670006354E6006F1080274C
:103AF0000326C1013387CB00330797403306D640F6
:103B0000130906006354C700130907006358200314
:103B10000327810FB387270123A0980013071700FD
:103B200023A22801232EF10E232CE10E9306700010
:103B30009388880063D4E6006F10C0281347F9FF0C
:103B40001357F7413377E900B304E640634490002C
:103B50006FF0CF810327810F63509A6213097000C1
:103B60006F00C000938404FF63589A609387070135
:103B700013071700974602009386C6D123A0D800EA
:103B800023A24801232EF10E232CE10E93888800F6
:103B9000E35AE9FC1306410F93050C0013050D00D1
:103BA000EFA0906DE31A05D28327C10F0327810F81
:103BB0009308C1116FF01FFB93F71A00639407C6B7
:103BC00023A2D800232E910F232C910E930770006F
:103BD00063CA972213072700938808016FF08FD1DB
:103BE000635AB0D16344BA016F108069930B7000BF
:103BF000938406006F000001938D0DFF635EBA1D74
:103C000093841400938C0C0197470200938787C814
:103C10002320F90023224901232E910F232C910EFA
:103C200013098900E3DA9BFC1306410F93050C008E
:103C300013050D00EFA05064E31005CA832CC10FDB
:103C40008324810F1309C1116FF01FFB83264101EB
:103C500093F70A01138746006392071693F70A0445
:103C6000638007688327410113090000232AE100CC
:103C700083DD07006FF00FF58326410193F70A01FA
:103C8000138746006392071293F70A046386076A54
:103C900083274101232AE100839D070013D9FD41B9
:103CA0009307090063D607FAB337B00133092041FF
:103CB0003309F9409307D002A30BF10CB30DB041C7
:103CC000138B0A00930710006FF00FE803274101E0
:103CD00093770B0193064700639E070A93770B04C3
:103CE000638C07628327410113090000232AD10056
:103CF00083DD0700930710006FF0CFE413F71A007D
:103D0000631407006FE09FE66FF09F9A93880D00A1
:103D10006FF04FF193070003A30FF11A930BF11B00
:103D20006FF00FE583278103834404006394070049
:103D30006FE05FCE83C70700639407006FE09FCDFD
:103D400093EA0A406FE01FCD8326C100930B040065
:103D500093D7F6412320D7002322F7006FE09FE599
:103D6000032741018327070013074700232AE100A7
:103D700003A6070083A6470003A7870083A7C70001
:103D80002320C1102322D1102324E1102326F11077
:103D90006FE09FFA832D070013090000232AD1004A
:103DA000930710006FF00FDA83AD0600232AE100BD
:103DB00013D9FD41930709006FF04FE983AD060069
:103DC00013090000232AE1006FF0CFDF938406007F
:103DD000E34490C86FF0DFCA13871400930689008C
:103DE00097470200938707ABB38CBC012320F900EF
:103DF0002322B901232E910F232CE10E930770008B
:103E000063D4E77C1306410F93050C0013050D00E6
:103E1000EFA09046E31205AC0327810F832CC10F5E
:103E200093084112130717001309C1116FF08FACEB
:103E300093880D00138B0A006FF00FDA974702008A
:103E40009387478A93880D002328F10293F70A028B
:103E50006386071283274101938B770093FB8BFFC7
:103E600083AD0B0003A94B0093878B00232AF1003D
:103E700093F71A00638E0700B3E72D01638A0700EA
:103E800093070003230CF10CA30C910C93EA2A0076
:103E900013FBFABF930720006FF0CFCA83441400CE
:103EA00093EA0A20130414006FE0DFB6974702007C
:103EB0009387878493880D002328F1026FF01FF900
:103EC00093880D006FF0CFCD1306410F93050C00C2
:103ED00013050D00EFA0503AE31005A08327C10F92
:103EE0009308C1116FF0CFFF8344140093EA0A02D4
:103EF000130414006FE01FB29307600013890C00D5
:103F000063E49773130B0900232AB101973B020066
:103F1000938BCB7F6FE09FB70327810F63529A4645
:103F2000930C70006F00C000938404FF635A9A449E
:103F3000938707011307170097460200938686951B
:103F400023A0D80023A24801232EF10E232CE10E3A
:103F500093888800E3DAECFC1306410F93050C000C
:103F600013050D00EFA05031E31805968327C10F0C
:103F70000327810F9308C1116FF01FFB83264101B6
:103F800093F70A0113874600638A071A83AD060078
:103F900013090000232AE1006FF09FED1306410F83
:103FA00093050C0013050D00EFA0102DE3160592EC
:103FB000832CC10F8324810F1309C1116FF00F8867
:103FC0001306410F93050C0013050D00EFA0D02A36
:103FD000E3140590832CC10F8324810F1309C111B1
:103FE0006FF08F88930B011C93070000232881003A
:103FF000232C910013840B0023203103930B0C001E
:1040000093840D0093090900832D8103937A0B405B
:10401000138C0800138907006F0040021306A000EC
:10402000930600001385040093850900EFD09FD408
:104030006386095893040500938905001306A000C0
:10404000930600001385040093850900EFD0107BD0
:1040500013050503A30FA4FE130919001304F4FFAD
:10406000E38E0AFA83C60D00E31AD9FA9307F00F1C
:10407000E306F9FA639409509307900063E09750C0
:1040800093080C009307011C138C0B00930B040086
:10409000232E2101832481018329010203240101AC
:1040A000232CB10333897741930A0B006FF04FAC97
:1040B0000327810F173602001306C66523A0C80028
:1040C00093871700130610001307170023A2C800D8
:1040D000232EF10E232CE10E130670009388880026
:1040E000634CE64E639A06148326C10113F71A0047
:1040F0003367D700631407006FE05FA70327C1028F
:104100008326810223A0E8000327810FB387F600EE
:1041100023A2D80013071700232EF10E232CE10E43
:104120009306700063CAE65A938888006F000014F3
:10413000130D0400138C04006FF00FFA93F70A04B8
:10414000638E071A8327410113090000232AE10027
:1041500083DD07006FF0DFD11306410F93050C00DC
:1041600013050D00EFA05011631805F68327C10F4A
:104170009308C1116FF00FD39736020093868671B2
:1041800023A0D80023A29800B38797001307170035
:10419000232EF10E232CE10E9306700063C4E6007B
:1041A0006FE09F9C6FE05FF7832701109305010B81
:1041B0001305010C2320F10C832741102328010A49
:1041C000232A010A2322F10C83278110232C010AC0
:1041D000232E010A2324F10C8327C1102326F10C7E
:1041E000EFF0800E83280101E342053A8347710D09
:1041F00013077004973B0200938BCB4D63409740AD
:10420000232801002322010223200102232C010084
:1042100093FAFAF7130B300013093000930C0000E7
:10422000639807866FE0DF878327C100930B040044
:104230002320F7006FE01F980327C10203268102A5
:104240009388880023ACE8FE0327810FB307F600AC
:1042500023AEC8FE13071700232EF10E232CE10E08
:1042600013067000634AE646E3C2063E8326C10198
:104270001307170023A07801B387F60023A2D80004
:10428000232EF10E232CE10E9306700063C4E6008A
:104290006FE09F8D6FE05FE813850B00232E110305
:1042A000EFE08FD48347710D134BF5FF135BFB4198
:1042B000232AB10123280100232201022320010225
:1042C000232C01008328C10313090500337B6501FA
:1042D000930C0000638407006FE09FFB6FE04FFCCE
:1042E00093F70A206380073C8327410113090000EC
:1042F000232AE10083CD07006FF0CF8C93F70A20CB
:10430000638807388327410113090000232AE1004D
:1043100083CD07006FF0DFB593770B20638E0734F2
:104320008327410113090000232AD10083CD070010
:10433000930710006FF00F8193F70A206382073212
:1043400083274101232AE100838D070013D9FD4112
:10435000930709006FF08F8F8327C11063CE073456
:104360008347710D13077004973B0200938B0B3743
:10437000E35897E8973B0200938B8B366FF05FE82A
:104380009736020093860651B387970013071700EC
:1043900023A0D80023A29800232EF10E232CE10E97
:1043A000930670009388880063D8E6EE1306410FE9
:1043B00093050C0013050D00EFA0006C631E05D0E3
:1043C0008327C10F9308C1116FF00FED0327C101BF
:1043D000832C0102232C5101232E8102232031053D
:1043E000232061038329410223227103B38DEB0053
:1043F00003248103832A4104032B810413097000E1
:10440000930B0C0063880C08639809081304F4FFED
:10441000938CFCFF0327810FB387570123A068010A
:104420001307170023A25801232EF10E232CE10EAF
:10443000938888006342E9108346040033869D40D8
:10444000138C06006354D600130C060063568003D9
:104450008326810FB387870123A0980093861600D7
:1044600023A28801232EF10E232CD10E6346D90EF0
:1044700083460400938888001346FCFF1356F641D8
:104480003377CC00338CE640634C8001B384D40096
:10449000E39C0CF6638C09669389F9FF6FF09FF734
:1044A0008326810F63488A016F00C005130C0CFF3F
:1044B000635A8A059387070193861600173702000F
:1044C0001307473D23A0E80023A24801232EF10E45
:1044D000232CD10E93888800E35AD9FC1306410F90
:1044E00093850B0013050D00EFA00059631E056CAA
:1044F000130C0CFF8327C10F8326810F9308C11172
:10450000E34A8AFBB38787019386160017370200B8
:104510001307473823A0E80023A28801232EF10EB9
:10452000232CD10E6344D96C834604009388880001
:10453000B384D4006FF0DFF51306410F93850B00B1
:1045400013050D00EFA04053631005688327C10FCA
:104550009308C1116FF05FEE1306410F93850B00B6
:1045600013050D00EFA0405163100566834604005B
:104570008327C10F9308C1116FF01FF083274104F7
:1045800083258104130900003304F44013860700D7
:1045900013050400EF70501283C51D001306A00020
:1045A000930600003338B00013850400938509009A
:1045B000B38D0D01EFD00FFC6FF0DFA793079000D4
:1045C000E3EA97A66FF0DFAB130717009388860026
:1045D000138906006FE01FB21306410F93050C000C
:1045E00013050D00EFA04049631805AE8326C10DE9
:1045F0008327C10F9308C1116FF0DFAE973B020014
:10460000938B8B0D6FF0DFBF1306410F93050C00EA
:1046100013050D00EFA04046631005AC8327C10FC2
:104620009308C1116FF0CFC5130960006FF09F8D23
:104630000327C1013388EB003306D740B306984007
:104640001309060063DCC6CE138906006FF00FCF96
:104650008327C100930B04002310F7006FE08FD570
:1046600083274101232AE10083AD070013D9FD41CF
:10467000930709006FE09FDD8327410113090000C4
:10468000232AD10083AD0700930710006FE09FCB72
:104690008327410113090000232AE10083AD0700AD
:1046A0006FF00FFD8327410113090000232AE10069
:1046B00083AD07006FE01FD19307D002A30BF10C6D
:1046C0006FF05FCA1306410F93050C0013050D0030
:1046D000EFA0803A6FE04FCF1306410F93050C0017
:1046E00013050D00EFA040396318059E8326C10D08
:1046F0008327C10F0327810F9308C1116FF0DFB625
:1047000093070003230CF10C9307800513E72A009D
:10471000A30CF10C2328E1049307300623280100A1
:10472000930BC115E3CA970D032EC11093F7F4FD47
:10473000232EF10223240106832E0110032F4110A2
:10474000832F811093EA2A1063480E4893071006BE
:10475000E38AF41A930710046384F4006FE0CFE651
:10476000130B010C13050B00232A11052322E10D65
:104770002324F10D2320D10D2326C10DEF10C1609C
:104780001306C10DEF708021138605009305050007
:1047900013050B00EF10C13F832E010C9737020069
:1047A0009387471203AE07002320D10B832E410CC1
:1047B00083A6470003A787002322D10B832E810CF9
:1047C00083A7C7001306010A2324D10B832EC10C33
:1047D0001309010B93050600232CC10013050900E2
:1047E000130601092320C1042326D10B2328C10964
:1047F000232AD108232CE108232EF108EFE01041F1
:104800008326010B032E410B832E810B032FC10B3B
:104810009305090013050B002320D10C2326D10496
:104820002322C10D2322C1032324D10D2320D10330
:104830002326E10D232EE1012328010A232A010A60
:10484000232C010A232E010AEFE01007032FC101D8
:10485000832E0102032E41028326C10483284105D1
:104860006316050093071000232EF10C9737020002
:10487000938787E82322F102973702009387870204
:1048800003A7070023265107232A9106232CE104BE
:1048900003A74700232C3107938A0B00232EE10442
:1048A00003A7870083A7C7002322A1092320E106CD
:1048B0001387FCFF232481092326710983248101A6
:1048C0002322F1062328810693090700232E91074E
:1048D00023201109938B0600130C0E00138D0E007C
:1048E000930D0F006F0000059305090013050B00E1
:1048F0002320C102232EF101232C51002322510C2D
:104900002324F10D2326C10C2320910D2328010A15
:10491000232A010A232C010A232E010AEFE0C07981
:104920009389F9FF93020C00930F0D0013860D007D
:104930006308050E8327810513860400930509008B
:104940002320F10A8327C10513050B002328710BCF
:104950002322F10A83270106232A810B232CA10B92
:104960002324F10A83274106232EB10B2326F10AC3
:10497000EFE0D02913050B00EF00117B9305050034
:104980001304050013050B00032C010C832B410CB1
:10499000832D810C032DC10CEF10410A8326010CDD
:1049A00003260104938504002328D1088326410CA3
:1049B000130509002320810B232AD1088326810CAB
:1049C0002322710B2324B10B232CD1088326C10C85
:1049D0002326A10B232ED108EFF09022832741023A
:1049E000832C010B8322410BB386870083C606000C
:1049F000832F810B0326C10B232A51052380DA0064
:104A0000232631059307F0FF938A1A00938B0C003D
:104A1000138C0200138D0F00930D0600E396F9EC42
:104A200017370200130707E9832E0700032E4700FC
:104A300083268700832801080327C70093830C007F
:104A4000232E1101232C8100938D0A0003240107DA
:104A5000832AC1062320710C232871062322510CBE
:104A6000232651062324F10D2322F1072326C10C0E
:104A70002320C1062328D10B232ED105232AC10BC5
:104A8000232CC105232CD10A2320D104232EE10A93
:104A90002320E1029305090013050B00832441073D
:104AA00083298107032D4108032C8108832BC1082A
:104AB000832CC107EFE0006D8328C101634AA04643
:104AC0009305090013050B00EFE0005F8328C10187
:104AD000631805008327810113FB1700631A0B4439
:104AE0008327C10493060003138717003387ED0063
:104AF00063C80700938D1D00A38FDDFEE31CB7FF85
:104B0000B3877D41232EF1006FE08FB60327C101EB
:104B1000138C0B00832B4102232C8102832A8101F9
:104B20003387EB000324C10383290104032B010213
:104B3000636497006FE05FF7930407006FE0DFF6B0
:104B4000032781019307D0FF6344F70063DAEC0089
:104B50009384E4FF93F7F4FD232EF1026FE0CFB3CB
:104B6000032781018327C1016346F72883270105B5
:104B70001309070093F71700638607008327810254
:104B80003309F7008327010593F707406386070081
:104B9000832781016346F04A134BF9FF135BFB4106
:104BA000337B690193047006232201022320010252
:104BB0006FE04FC08347710D930C000063840700C2
:104BC0006FE00FED6FD0DFED138C0B006FE0DFD0E7
:104BD00023280100938A0700B707008033CEC7015E
:104BE0009307D0022324F1066FF05FB61306410F3E
:104BF00093850B0013050D00EF901068E31605FC7C
:104C0000834604008327C10F9308C111B384D400E5
:104C10006FF01F88130B010C9307010E1307C10DD2
:104C20001308C10E93860C001306300093050B0089
:104C300013050D00232011052320D10D2322D103BC
:104C40002322E10D2320E1032324F10D232EF10182
:104C50002326C10D232CC101EF30804603470500F8
:104C600093070003032E8101832FC101032F01024B
:104C7000832E410283280104930B05001309010BC5
:104C8000630CF7068327C10DB3879701B38DFB0033
:104C90009305090013050B00232C11012320D10DCE
:104CA0002322E10D2324F10D2326C10D2328010A1F
:104CB000232A010A232C010A232E010AEFE0C03F18
:104CC0008328810193870D00631405006FE0CF995D
:104CD0008327C10E63E4B7016FE00F9993060003C9
:104CE000138717002326E10E2380D7008327C10EE8
:104CF000E3E8B7FF6FE04F971309010B9305090035
:104D000013050B00232011052320D10D2322D103ED
:104D10002322E10D2320E1032324F10D232EF101B1
:104D20002326C10D232CC1012328010A232A010AAD
:104D3000232C010A232E010AEFE00038032E810103
:104D4000832FC101032F0102832E41028328010416
:104D5000E30A05F293071000B3879741232EF10C65
:104D60006FF09FF21306410F93050C0013050D0021
:104D7000EF909050630405006FE01FB68326C10DCD
:104D80008327C10F9308C1116FE09FD69307D0020C
:104D9000A30BF10C6FF0CFC58347710D232AB1012E
:104DA0002322010223200102232C0100138B0C007B
:104DB00013890C00930C0000638407006FE04FCD53
:104DC0006FD01FCE1306410F93050C0013050D0085
:104DD000EF90904A630405006FE01FB08324C10D7B
:104DE0000327C1018327C10F9308C11133069740E0
:104DF0006FE0DFD48327C10103278102930470068B
:104E00003389E70083278101635CF0408327010534
:104E100093F7074063980722134BF9FF135BFB419D
:104E2000337B69016FF05FD8832701050327810178
:104E300093F71700B3E79701635AE040639207289E
:104E400003298101930460066FF05FFC130600FFE5
:104E5000B304D04063DEC612130970006F00C000B7
:104E6000938404FF63569A12938707011307170070
:104E700097360200938606A223A0D80023A24801F9
:104E8000232EF10E232CE10E93888800E35AE9FCCF
:104E90001306410F93050C0013050D00EF90D03D54
:104EA000630405006FE05FA38327C10F0327810F11
:104EB0009308C1116FF0DFFA9307F0FF2326F1008A
:104EC0006FD09FD113891C00130B010C1308C10E66
:104ED0009307010E1307C10D930609001306200066
:104EE00093050B0013050D002320D10D2322D103C0
:104EF0002322E10D2320E1032324F10D232EF101D0
:104F00002326C10D232CC101EF30801B032E81010C
:104F1000832FC101032F0102832E41028328010444
:104F2000930B0500B38D2B011309010B6FF05FD6B6
:104F30008327410513870D002326F10E83274102A5
:104F400083C6FDFF03C6F7006390C6029305000306
:104F5000A30FB7FE0327C10E9307F7FF2326F10E19
:104F60008346F7FFE306D6FE1386160093059003EB
:104F70001376F60F6386B600A30FC7FE6FF05FB817
:104F80008327410203C6A700A30FC7FE6FF05FB7D8
:104F90009736020093860690B38797001307170091
:104FA00023A0D80023A29800232EF10E232CE10E7B
:104FB0009306700063DAE6961306410F93050C0022
:104FC00013050D00EF90502B630405006FE0DF9098
:104FD0008327C10F0327810F9308C1116FF00FA919
:104FE00093070003230CF10C930780076FF00FF277
:104FF000138B0A006FE08FC993851C0013050D0009
:1050000023281101EF40407C83280101930B050008
:105010006302052A2328A1006FF00FF1B38D9B01D5
:105020001309010B6FF0DFC6930C60006FD01FD720
:1050300063840C006FD09FD6930C10006FD01FD6E6
:1050400093047006032681031307F00F83470600BD
:105050006380E72883268101130500009305000083
:1050600063DED700B386F6408347160063840704E7
:105070009385150013061600E394E7FE232CD10058
:10508000232CC1022320B1022322A10203274102C3
:1050900083270102B387E70003274104B387E702B0
:1050A00033892701134BF9FF135BFB41337B690104
:1050B0006FD05FF083470600130515006FF0DFFB2C
:1050C0008327810293046006B307F70033899701B1
:1050D0006FF0DFD31307610E639806001307000318
:1050E0002303E10E1307710E9306011C9387070338
:1050F000B306D7402300F7009387D60D232AF10289
:105100006FD01FE7130B010C13050B00232A1105A9
:105110002322E10D2324F10D2320D10D2326C10DDF
:10512000EF0091461306C10DEF605007138605008E
:105130009305050013050B00EF009125832E010C4C
:10514000972702009387077803AE07002320D10B2F
:10515000832E410C83A6470003A787002322D10B8F
:10516000832E810C83A7C7001306010A2324D10BC9
:10517000832EC10C1309010B93050600232CC100DB
:1051800013050900130601092320C1042326D10BAE
:105190002328C109232AD108232CE108232EF10852
:1051A000EFE0C0268326010B032E410B832E810BDB
:1051B000032FC10B9305090013050B002320D10C0D
:1051C0002326D1042322C10D2322C1032324D10D80
:1051D0002320D1032326E10D232EE1012328010AF8
:1051E000232A010A232C010A232E010AEFD0D06CB6
:1051F000032FC101832E0102032E41028326C10425
:10520000832841056316050093071000232EF10C37
:10521000972702009387074D2322F1026FF0CFE515
:10522000B30CF94013891C00134BF9FF135BFB41CE
:10523000337B69016FF05F978327010593F71700B0
:10524000639407006FD0DFD46FD01FD4639A070038
:10525000130B100093046006130910006FF0DF9425
:10526000832781029304600693871700338997018F
:10527000134BF9FF135BFB41337B69016FF0DF9246
:10528000938608006FE0DFB58327410183AC0700F8
:105290009387470063D40C00930CF0FF8344140001
:1052A000232AF100138406006FD0CFF613890C0077
:1052B0006FF05FC78357CC0093E707042316FC0009
:1052C0006FD09F9093072000232AF1026FD05FCA0E
:1052D00023220102232001026FF05FDB9306060008
:1052E000138605009305050003A501F46FD08FD840
:1052F00083D7C50003AE450603D3E50083A8C501E7
:1053000003A84502130101B893F7D7FF1307004024
:10531000232C8146231AF10013840500930701070B
:1053200093058100232A914623282147232E1146E5
:10533000130905002326C107231B61002322110343
:10534000232601032324F100232CF1002328E1006C
:10535000232EE10023200102EFD0CFD193040500DA
:10536000635C05028357410193F7070463880700D4
:105370008357C40093E707042316F4008320C14732
:1053800003248147032901471385040083244147EF
:10539000130101486780000093058100130509008F
:1053A000EF004059E30005FC9304F0FF6FF09FFB12
:1053B000130101FF232481002322910023261100E1
:1053C00083A701F493040500138405006386070096
:1053D00003A78703630407080317C4009317070193
:1053E0009376870093D70701638806088326040114
:1053F0006388060A13F617006308060203264401B1
:1054000023240400130500003306C040232CC400ED
:10541000638A06028320C1000324810083244100A3
:10542000130101016780000013F6270093050000B7
:1054300063140600832544012324B40013050000EF
:10544000E39A06FC93F70708E38607FC1367070453
:105450002316E4001305F0FF6FF0DFFB1385070050
:10546000EF0010100317C40093170701937687000D
:1054700093D70701E39C06F693F6070163820608BB
:1054800093F747006394070483260401136787009A
:10549000931707012316E40093D70701E39C06F452
:1054A00013F6072893050020E306B6F493050400DD
:1054B00013850400EF40400B0317C400832604014A
:1054C0009317070193D707016FF0DFF283250403D9
:1054D000638E0500930704046388F50013850400B8
:1054E000EF00D01F0317C400232804028326040101
:1054F0001377B7FD232204002320D4006FF01FF997
:105500009307900023A0F400136707042316E40018
:105510001305F0FF6FF01FF003A781F383278714B3
:10552000638C070403A747001308F001634EE806E5
:105530001318270063060502338307012324C308D9
:1055400083A88718130610003316E600B3E8C800D6
:1055500023A417192324D310930620006304D50233
:105560001307170023A2E700B387070123A4B7009E
:1055700013050000678000009307C7142324F71465
:105580006FF05FFA83A6C7181307170023A2E7007E
:1055900033E6C60023A6C718B387070123A4B700C4
:1055A00013050000678000001305F0FF678000000E
:1055B000130101FD232C410103AA81F323202103C0
:1055C00003298A1423261102232481022322910213
:1055D000232E3101232A5101232861012326710141
:1055E0002324810163000904130B0500938B05003C
:1055F000930A10009309F0FF832449001384F4FFF9
:105600006342040293942400B304990063840B045E
:1056100083A74410638077051304F4FF9384C4FFC9
:10562000E31634FF8320C102032481028324410254
:10563000032901028329C101032A8101832A41012F
:10564000032B0101832BC100032C810013010103F3
:10565000678000008327490083A644009387F7FFF3
:10566000638E870423A20400E38806FA832789183F
:1056700033978A00032C4900B377F700639207023F
:10568000E78006000327490083278A1463148701F3
:10569000E38427F9E38807F8138907006FF0DFF543
:1056A0008327C91883A544083377F700631C0700D4
:1056B00013050B00E78006006FF0DFFC2322890052
:1056C0006FF09FFA13850500E78006006FF09FFBDF
:1056D0008397C500130101FE232C8100232631018D
:1056E000232E1100232A91002328210193F68700FD
:1056F0001384050093090500639C0610371700000A
:105700001307078083A64500B3E7E7002396F5005B
:105710006356D01803278402630C070C9397070184
:1057200093D70701B716000083A40900B3F6D7008A
:1057300023A009008325C401639806169306100070
:105740001306000013850900E70007009307F0FF28
:10575000630EF5188357C400032784028325C40110
:1057600093F74700638E07008326440083270403D2
:105770003305D540638607008327C4033305F5400E
:10578000130605009306000013850900E7000700D3
:105790009307F0FF631EF51003A709008317C400E9
:1057A000630A07169306D0016306D70093066001CB
:1057B0006314D70C8326040137F7FFFF1307F77F25
:1057C000B3F7E7002316F400232204002320D400BB
:1057D0008325040323A09900638C05009307040428
:1057E0006386F50013850900EF00406F232804024B
:1057F000130500008320C10103248101832441019A
:10580000032901018329C1001301010267800000FF
:1058100003A90501E30E09FC83A405001397070102
:10582000135707011377370023A02501B3842441C0
:10583000930700006314070083A745012324F400A5
:10584000634890006FF0DFFA3309A900E35290FA41
:10585000832744028325C4019386040013060900AC
:1058600013850900E7800700B384A440E34EA0FC41
:105870008357C4001305F0FF93E707048320C10199
:105880002316F4000324810183244101032901012B
:105890008329C100130101026780000003A7C5032B
:1058A000E34AE0E66FF0DFF4032504056FF05FEBF9
:1058B0008357C40037F7FFFF1307F77FB3F7E700FD
:1058C000832604019397070193D7074113D7C70095
:1058D0002316F400232204002320D400937717001A
:1058E000E38807EE2328A4046FF09FEE83A7090046
:1058F000E38207E61307D0016388E702130760011C
:105900006384E7028357C40093E707042316F40077
:105910006FF05FEE37F7FFFF1307F77F8326040171
:10592000B3F7E7006FF09FFA23A09900130500007A
:105930006FF05FEC130101FE232C8100232E110078
:1059400013040500630605008327850363800702AF
:105950008397C500639607028320C1010324810158
:105960001305000013010102678000002326B10027
:10597000EF00003F8325C1008397C500E38E07FC3D
:1059800013050400032481018320C10113010102D6
:105990006FF01FD463060506130101FE232C81005E
:1059A000232E11001304050003A501F4630605006E
:1059B00083278503638A07028317C400639C07005B
:1059C0008320C1010324810113050000130101029A
:1059D0006780000093050400032481018320C10136
:1059E000130101026FF0DFCE2326A100EF00403744
:1059F0008317C4000325C100E38407FC6FF09FFDFB
:105A000097050000938545F303A581F36F0090513E
:105A1000130500006780000097A500009385456A84
:105A20006F0050501305000067800000130101FE55
:105A3000232E1100232C8100232A910023282101E9
:105A40002326310123244101232251012320610116
:105A50000324450017070000130747FC232EE50227
:105A60009307C52E130730002322E52E2324F52E9D
:105A70002320052E93074000130905002326F40078
:105A8000130680009305000023220406232004004F
:105A9000232204002324040023280400232A0400D2
:105AA000232C04001305C405EFC01F95832489002F
:105AB000176B0000130B0B08976A0000938ACA0D3E
:105AC000176A0000130ACA15976900009389C91B59
:105AD000B707010023206403232254032324440333
